:100000000C941E010C9446010C9446010C9446017C
:100010000C9446010C9446010C9446010C94460144
:100020000C9446010C9446010C9446010C94460134
:100030000C9446010C9446010C9446010C94460124
:100040000C9450080C9446010C94C0080C949A0827
:100050000C9446010C9446010C9446010C94460104
:100060000C9446010C9446014E414E494E49545958
:10007000494E46CDCCCC3D0AD7233C17B7D1387773
:10008000CC2B329595E6241FB14F0A000020410089
:1000900000C84200401C4620BCBE4CCA1B0E5AAED3
:1000A000C59D7424424F4F542C52454144595F38EA
:1000B0005F4348414E4E454C535F434F44455800C3
:1000C00024454550524F4D5F4552522C454D50549A
:1000D000590024454550524F4D5F444154412C0036
:1000E000244552522C4E4F5F454550524F4D5F4470
:1000F00041544100244F4B2C454550524F4D5F4CCD
:100100004F4144454400244F4B2C53545245414DDC
:100110005F4D5554454400244F4B2C535452454198
:100120004D5F41435449564500244F4B2C53544F87
:100130005050454400244F4B2C5354415254454495
:1001400000244F4B2C5049445F5550444154454482
:1001500000000000002300260029002454454C0024
:10016000244F4B2C57484954455F444F4E455F43FD
:10017000414C4942524154454400244C4F472C4382
:10018000414C4942524154494E475F5748495445B2
:1001900000244F4B2C424C41434B5F444F4E450093
:1001A000244C4F472C43414C4942524154494E47FD
:1001B0005F424C41434B0000000000240027002A0E
:1001C0000000000000250028002B000404040404A3
:1001D00004040402020202020203030303030301F4
:1001E00002040810204080010204081020010204CB
:1001F00008102000000008000201000003040700AE
:1002000000000000000000244346472C0024454520
:1002100050524F4D5F4552522C5645524946595FF8
:100220004641494C45440024454550524F4D5F4F8F
:100230004B2C53415645442C0000F20811241FBE9C
:10024000CFEFD8E0DEBFCDBF23E0AEE8B1E001C024
:100250001D92A632B207E1F711E0A0E0B1E0EAE4B6
:10026000FAE202C005900D92AE38B107D9F711E05D
:10027000CEE1D1E004C02197FE010E94E713CD3109
:10028000D107C9F70E943B090C9423150C94000078
:10029000E7E0F1E0A0ECB2E081918E3008F08E5002
:1002A0008770806480937C0080917A008064809362
:1002B0007A0080917A0086FDFCCF80917800909141
:1002C00079008D939D9381E0EF30F80729F7089529
:1002D000833081F028F4813099F08230A9F00895BC
:1002E0008730A9F08830C9F08430B1F48091800063
:1002F0008F7D03C0809180008F7780938000089568
:1003000084B58F7784BD089584B58F7DFBCF8091B0
:10031000B0008F778093B00008958091B0008F7DFA
:10032000F9CF1F93CF93DF93282F30E0F901ED50E1
:10033000FE4F8491F901E152FE4FD491F901E5534A
:10034000FE4FC491CC23A9F0162F81110E946801A1
:10035000EC2FF0E0EE0FFF1FEF53FE4FA591B4918D
:100360008FB7F894EC91111108C0D095DE23DC937F
:100370008FBFDF91CF911F910895DE2BF8CFCF93E0
:10038000DF9390E0FC01E152FE4F249185539E4F94
:10039000FC0184918823C9F090E0880F991FFC012B
:1003A000E954FE4FA591B491FC01EF53FE4FC59166
:1003B000D49161110DC09FB7F8948C912095822340
:1003C0008C938881282328839FBFDF91CF91089544
:1003D000623051F49FB7F8943C91822F809583232B
:1003E0008C93E8812E2BEFCF8FB7F894EC912E2BC6
:1003F0002C938FBFEACF1F93CF93DF93182FEB017E
:1004000061E00E94BF01209739F460E0812FDF9105
:10041000CF911F910C949101CF3FD10511F461E070
:10042000F5CFE12FF0E0ED50FE4FE491E33031F1F4
:1004300040F4E130B1F0E230E1F0C038D1057CF7B2
:10044000E4CFE73029F1E83059F1E430B1F7809199
:100450008000806280938000D0938B00C0938A00DC
:1004600004C084B5806884BDC7BDDF91CF911F9162
:10047000089584B5806284BDC8BDF7CF80918000A7
:10048000806880938000D0938900C0938800EDCF6E
:100490008091B00080688093B000C093B300E5CF36
:1004A0008091B00080628093B000C093B400DDCF33
:1004B0000F931F93CF93DF9381302FEF92070CF4AC
:1004C00074C08C018F3F910519F014F00FEF10E00C
:1004D000C1E0DFEF61308FEF78073CF0EB016F3F59
:1004E000710519F014F0CFEFD0E01093CE01009316
:1004F000CD01D093D001C093CF011016110614F591
:1005000060E08AE00E94910161E089E00E9491012F
:10051000B8018BE00E94FB011C161D0674F561E01A
:1005200084E00E94910160E085E00E949101BE019B
:1005300083E0DF91CF911F910F910C94FB0101E0BB
:100540001FEFCCCF0115110569F061E08AE00E9430
:10055000910160E089E00E94910166277727601B86
:10056000710BD7CF60E08AE00E94910160E089E0E2
:100570000E94910170E060E0CCCF60E084E02097C1
:1005800059F00E94910161E085E00E949101662787
:1005900077276C1B7D0BCCCF0E94910160E085E03A
:1005A0000E94910170E060E0C3CF61302FEF7207CD
:1005B00034F681E09FEF9093CE018093CD0190932C
:1005C000D0018093CF01C1E0DFEF01E01FEFBDCF8D
:1005D00060E08AE00E94910160E089E00E94910160
:1005E00070E060E08BE00E94FB0160E084E00E942C
:1005F000910160E085E00E94910170E060E083E09D
:100600000E94FB01EDECF1E0118210821382128254
:1006100008953FB7F8948091B9019091BA01A091E3
:10062000BB01B091BC0126B5A89B05C02F3F19F0B6
:100630000196A11DB11D3FBFBA2FA92F982F882762
:10064000BC01CD01620F711D811D911D42E0660F3D
:10065000771F881F991F4A95D1F708958F929F920F
:10066000AF92BF92CF92DF92EF92FF924B015C016B
:100670000E9409036B017C010E9409036C197D092A
:100680008E099F09683E734081059105A8F321E01A
:10069000821A9108A108B10888EEC80E83E0D81E1E
:1006A000E11CF11C81149104A104B10429F7FF900D
:1006B000EF90DF90CF90BF90AF909F908F90089574
:1006C0006F927F928F929F92AF92BF92CF92DF9262
:1006D000EF92FF920F931F93CF93DF93CDB7DEB7C7
:1006E000A0970FB6F894DEBF0FBECDBF4C01CE0170
:1006F00001967C0180E2D7011D928A95E9F710E509
:100700005E01B1E2AB0EB11C0E944801670190ECA2
:10071000692E92E0792EF701419151916191719189
:10072000D3012D913D913D01CF010497420F531FFD
:10073000611D711DDC014D935D936D937C93139747
:10074000EA15FB0549F76FE070E080E090E00E9459
:100750002E031150C9F684017401B0E1EB0EF11CB7
:1007600080E5882E912CA12CB12CF601619171911C
:10077000819191916F01A50194010E949E13D8016E
:100780002D933D938D01AE15BF0579F7A0960FB659
:10079000F894DEBF0FBECDBFDF91CF911F910F91B7
:1007A000FF90EF90DF90CF90BF90AF909F908F9091
:1007B0007F906F9008952FB7F8946091B501709174
:1007C000B6018091B7019091B8012FBF0895AF9203
:1007D000BF92CF92DF92EF92FF920F931F93CF932E
:1007E000DF936C017B018B01040F151FEB015E0190
:1007F000AE18BF08C017D10759F06991D601ED9125
:10080000FC910190F081E02DC6010995892B79F7C3
:10081000C501DF91CF911F910F91FF90EF90DF9075
:10082000CF90BF90AF900895FC01538D448D252F3C
:1008300030E0842F90E0821B930B541710F0CF967A
:10084000089501970895FC01918D828D981761F0AC
:10085000A28DAE0FBF2FB11D5D968C91928D9F5FC3
:100860009F73928F90E008958FEF9FEF0895FC01A2
:10087000918D828D981731F0828DE80FF11D858D55
:1008800090E008958FEF9FEF0895FC01918D228DE8
:10089000892F90E0805C9F4F821B91098F7399276D
:1008A000089581ED91E00E94450421E0892B09F42F
:1008B00020E0822F089580E090E0892B29F00E94AB
:1008C000510481110C9400000895FC01A48DA80F1F
:1008D000B92FB11DA35ABF4F2C91848D90E0019682
:1008E0008F739927848FA689B7892C93A089B189A2
:1008F0008C91837080648C93938D848D981306C043
:100900000288F389E02D80818F7D80830895EF92A6
:10091000FF920F931F93CF93DF93EC0181E0888FB9
:100920009B8D8C8D98131AC0E889F989808185FF89
:1009300015C09FB7F894EE89FF896083E889F9892B
:1009400080818370806480839FBF81E090E0DF912D
:10095000CF911F910F91FF90EF900895F62E0B8D80
:1009600010E00F5F1F4F0F731127E02E8C8D8E113B
:100970000CC00FB607FCFACFE889F989808185FFA2
:10098000F5CFCE010E946504F1CFEB8DEC0FFD2F6A
:10099000F11DE35AFF4FF0829FB7F8940B8FEA895D
:1009A000FB8980818062CFCF0F931F93CF93DF931A
:1009B0008C01D0E0C0E0F801EC0FFD1F64916623CC
:1009C00041F081ED91E00E948704892B11F021967E
:1009D000F2CFCE01DF91CF911F910F910895682F33
:1009E00081ED91E00C948704CF93DF93EC01888D27
:1009F0008823B9F0AA89BB89E889F9898C9185FD9A
:100A000003C0808186FD0DC00FB607FCF7CF8C9127
:100A100085FFF2CF808185FFEDCFCE010E94650476
:100A2000E9CFDF91CF91089560918E0181E0682731
:100A300060938E018DE00C949101CF93C82F682FA5
:100A40008DE00E949101C0938E01CF910895CF93C4
:100A5000DF93EC0190E080E00E942713888381E01F
:100A600090E00E9427138983CE01DF91CF910895F2
:100A7000EF92FF920F931F93CF93DF937C018C0132
:100A8000C2E0D0E0CE010E942713F80181938F01CC
:100A90002196C231D105B1F7C701DF91CF911F91E6
:100AA0000F91FF90EF900895CF93DF9300D0CDB7D3
:100AB000DEB71A821982CE0101960E94270589812C
:100AC0009A8186349C4451F48DEB91E00E94380564
:100AD00081E00F900F90DF91CF91089580E0F9CFE2
:100AE000FC0101900020E9F73197AF01481B590B39
:100AF000BC0181ED91E00C94E703CF93DF930E945A
:100B0000D404EC0181E291E00E9470058C0F9D1FDE
:100B1000DF91CF9108958F929F92AF92BF920F93E2
:100B20001F93CF93DF93CDB7DEB7A1970FB6F8949D
:100B3000DEBF0FBECDBF19A2423008F44AE08E01DD
:100B40000F5D1F4F842E912CB12CA12CA501940177
:100B50000E949E13E62FB901CA01EA30F4F4E05D69
:100B6000D801EE938D01232B242B252B79F790E0D0
:100B700080E0109719F0CD010E947005A1960FB684
:100B8000F894DEBF0FBECDBFDF91CF911F910F91C3
:100B9000BF90AF909F908F900895E95CE1CFCF9385
:100BA000DF93682F70E090E080E04AE00E948B05C0
:100BB000EC0181E291E00E9470058C0F9D1FDF9196
:100BC000CF910895CF92DF92EF92FF92CF93DF9370
:100BD00097FF19C06B017C018DE20E94EF04EC01CC
:100BE00066277727CB016C197D098E099F094AE09A
:100BF0000E948B058C0F9D1FDF91CF91FF90EF908E
:100C0000DF90CF9008954AE0DF91CF91FF90EF9071
:100C1000DF90CF900C948B05BC01990F880B990B3A
:100C20000C94E2054F925F926F927F928F929F9207
:100C3000AF92BF92CF92DF92EF92FF920F931F93EA
:100C4000CF936B017C01742EAC019B010E940715B0
:100C5000882399F084E291E0CF911F910F91FF904A
:100C6000EF90DF90CF90BF90AF909F908F907F904C
:100C70006F905F904F900C94700546015701E89477
:100C8000B7F82FEF3FEF4FE75FE7C501B4010E94D0
:100C9000071581110DC02FEF3FEF4FE75FE7C5014B
:100CA000B4010E94001218161CF488E291E0D4CF1F
:100CB0002FEF3FEF4FE75FE4C701B6010E94021537
:100CC00018161CF48CE291E0C7CF2FEF3FEF4FE7EF
:100CD0005FECC701B6010E94001287FDF3CF20E050
:100CE00030E0A901C701B6010E94001210E000E047
:100CF00087FF08C08DE20E94EF048C01F7FAF094A0
:100D0000F7F8F094C0E060E070E080E09FE37C16CC
:100D100041F020E030E040E251E40E945A14CF5FFD
:100D2000F6CFA70196010E94EE132B013C010E9411
:100D3000D3144B015C014AE00E948B057C01E00E5C
:100D4000F11ECC23B1F1C501B4010E9405129B0133
:100D5000AC01C301B2010E94ED134B015C018EE2B4
:100D60000E94EF04E80EF91EC15018F120E030E0B7
:100D700040E251E4C501B4010E9466122B013C011E
:100D80000E94D3144B01B12CA12C4AE0C501B4013F
:100D90000E948B05E80EF91EC501B4010E940512E0
:100DA0009B01AC01C301B2010E94ED134B015C0138
:100DB000DBCFC701CF911F910F91FF90EF90DF9094
:100DC000CF90BF90AF909F908F907F906F905F90EB
:100DD0004F900895CF93DF9387E092E00E94D40470
:100DE000CDEBD1E0688179818A819B8144E00E94CA
:100DF00012068CE20E94EF046C817D818E819F81BE
:100E000043E00E9412068CE20E94EF0488859985D7
:100E10000E940C068CE20E94EF048A859B850E944A
:100E20000C068CE20E94EF048C859D850E940C06C6
:100E30008CE20E94EF046E8570E090E080E04AE072
:100E40000E948B058CE20E94EF048F85DF91CF9189
:100E50000C94CF05CF92DF92EF92FF920F931F93E6
:100E6000CF93DF93CDB7DEB762970FB6F894DEBFAE
:100E70000FBECDBF90E080E00E942713863429F09A
:100E800066E490E080E00E942F1381E090E00E94F1
:100E900027138C3429F06CE481E090E00E942F133A
:100EA0008DEBE82E81E0F82E02E010E0F701D19002
:100EB0007F01C8010E942713D81621F06D2DC801AB
:100EC0000E942F130F5F1F4F0231110579F71A8A05
:100ED000198ACE0141960E942705CE0101960E94F3
:100EE000380589899A8986349C4409F0C5C02091C7
:100EF000BD013091BE014091BF015091C001698197
:100F00007A818B819C810E94ED136B017C0120E032
:100F100030E0A9010E940215181624F0F7FAF094A7
:100F2000F7F8F09427E137EB41ED58E3C701B6013C
:100F30000E94001287FFA0C02091C1013091C20120
:100F40004091C3015091C4016D817E818F8198854C
:100F50000E94ED136B017C0120E030E0A9010E94AA
:100F60000215181624F0F7FAF094F7F8F0942FE62B
:100F700032E143E85AE3C701B6010E94001287FF3D
:100F80007BC029853A858091C5019091C6012817BB
:100F9000390709F071C02B853C858091C70190917C
:100FA000C8012817390709F067C02D853E85809153
:100FB000C9019091CA012817390709F05DC09F85C2
:100FC0008091CB01981358C098898091CC019813D7
:100FD00053C087E292E00E94D40469817A818B81B8
:100FE0009C8144E00E9412068CE20E94EF046D8115
:100FF0007E818F81988543E00E9412068CE20E94D8
:10100000EF0489859A850E940C068CE20E94EF0409
:101010008B859C850E940C068CE20E94EF048D85D6
:101020009E850E940C068CE20E94EF046F8570E0A2
:1010300090E080E04AE00E948B058CE20E94EF0481
:1010400088890E94CF0513E061E08DE00E94910144
:1010500068E270E080E090E00E942E0360E08DE0A6
:101060000E94910168E270E080E090E00E942E030F
:10107000115051F781E005C08DE092E00E947D059E
:1010800080E062960FB6F894DEBF0FBECDBFDF9151
:10109000CF911F910F91FF90EF90DF90CF90089527
:1010A0001F920F920FB60F9211242F933F938F939D
:1010B0009F93AF93BF938091B5019091B601A0919A
:1010C000B701B091B8013091B40123E0230F2D375F
:1010D00058F50196A11DB11D2093B4018093B5016F
:1010E0009093B601A093B701B093B8018091B90174
:1010F0009091BA01A091BB01B091BC010196A11DD4
:10110000B11D8093B9019093BA01A093BB01B09334
:10111000BC01BF91AF919F918F913F912F910F9003
:101120000FBE0F901F90189526E8230F0296A11D61
:10113000B11DD2CF1F920F920FB60F9211242F9391
:101140003F934F935F936F937F938F939F93AF934F
:10115000BF93EF93FF9381ED91E00E946504FF91AF
:10116000EF91BF91AF919F918F917F916F915F911F
:101170004F913F912F910F900FBE0F901F90189598
:101180001F920F920FB60F9211242F938F939F935C
:10119000EF93FF93E091E101F091E2018081E09112
:1011A000E701F091E80182FD1BC090818091EA0186
:1011B0008F5F8F732091EB01821741F0E091EA017C
:1011C000F0E0EF52FE4F958F8093EA01FF91EF918F
:1011D0009F918F912F910F900FBE0F901F90189598
:1011E0008081F4CFE1EDF1E01382128288EE93E08A
:1011F000A0E0B0E084839583A683B78383E191E088
:101200009183808385EC90E09587848784EC90E0DF
:101210009787868780EC90E0918B808B81EC90E0C3
:10122000938B828B82EC90E0958B848B86EC90E0A4
:10123000978B868B118E128E138E148E8CEA9DE006
:10124000A0E0B0E08093180390931903A0931A03D1
:10125000B0931B0310921C0310921D0310921E03E7
:1012600010921F0310922003109221031092BE02CD
:101270001092BF020895CF93DF93CDB7DEB7689782
:101280000FB6F894DEBF0FBECDBF789484B58260F0
:1012900084BD84B5816084BD85B5826085BD85B51A
:1012A000816085BD80916E00816080936E00109298
:1012B0008100809181008260809381008091810013
:1012C00081608093810080918000816080938000A4
:1012D0008091B10084608093B1008091B000816002
:1012E0008093B00080917A00846080937A0080912E
:1012F0007A00826080937A0080917A008160809386
:101300007A0080917A00806880937A001092C10000
:1013100062E082E00E94BF0161E08DE00E94BF01B7
:1013200081E00E941D05E091E101F091E20182E07F
:101330008083E091DD01F091DE011082E091DF0118
:10134000F091E00180E180831092E901E091E501F4
:10135000F091E60186E08083E091E301F091E40101
:10136000808180618083E091E301F091E4018081DC
:1013700088608083E091E301F091E40180818068DE
:101380008083E091E301F091E40180818F7D80838F
:101390001092BF0207E011E07FE0E72E71E0F72E28
:1013A000D8018D918D01843118F460E00E94BF0155
:1013B000E016F106A9F780917A00887F8460809317
:1013C0007A0088EF92E0E8EEF2E0FC8BEB8B62E5CE
:1013D00073E046E950E024EF31E0AB89BC896D93BE
:1013E0007D93BC8BAB8B1F965C934E931E975F9641
:1013F0003C932E935E978A179B0779F761E08BE009
:101400000E94BF0161E08AE00E94BF0161E089E0C3
:101410000E94BF0161E083E00E94BF0161E084E0BF
:101420000E94BF0161E085E00E94BF010E94E802C6
:101430008091B100887F81608093B10010929F01FC
:101440001092A0011092A1011092A2011092A3018A
:101450001092A4011092A5011092A6011092A7016A
:101460001092A8011092A9011092AA011092AB014A
:101470001092AC011092AD011092AE011092AF012A
:101480001092B0011092B1011092B2010E94540565
:10149000811130C083E393E3A3EBBEE38093BD01EE
:1014A0009093BE01A093BF01B093C00180E090E093
:1014B000A0EAB0E48093C1019093C201A093C3015C
:1014C000B093C40184EB90E09093C6018093C50172
:1014D0008FEF90E09093C8018093C70182E890E07D
:1014E0009093CA018093C9011092CB011092CC0154
:1014F0000E942A0783EA90E00E947D050E94EA0686
:1015000080E00E941D0581ED91E00E944504892B39
:1015100009F4FEC081ED91E00E942304E091BE0237
:101520008A3019F08D3009F037C2EE2361F3F0E014
:10153000E259FD4F108245E050E060E371E08EE635
:1015400092E00E941515892B09F08EC064E371E0CA
:1015500083E792E00E945B100E9439102B013C014E
:1015600064E371E090E080E00E945B10009709F472
:101570006FC00E9439104B015C0164E371E090E0A0
:1015800080E00E945B10C090C501D090C60100971A
:1015900019F00E943D106C0164E371E090E080E07E
:1015A0000E945B10E090C701F090C801009719F00D
:1015B0000E943D107C0164E371E090E080E00E94B5
:1015C0005B100091C9011091CA01009719F00E94A7
:1015D0003D108C0164E371E090E080E00E945B10BC
:1015E0003090CB01009719F00E943D10382E64E333
:1015F00071E090E080E00E945B10009791F10E9402
:101600003D104092BD015092BE016092BF017092A8
:10161000C0018092C1019092C201A092C301B09218
:10162000C401D092C601C092C501F092C801E092F7
:10163000C7011093CA010093C9013092CB01809376
:10164000CC0181E491E00E947D050E94EA065EC023
:101650008090C1019090C201A090C301B090C401DC
:101660008CCF8091CC01CDCF45E050E066E371E0B6
:101670008EE692E00E941515892B09F004C16CE3F7
:1016800071E083E792E00E940C15892B41F485E01C
:101690008093B30185E391E00E947D0537C062E449
:1016A00071E083E792E00E940C15892B41F40E94BF
:1016B000E80284E08093B30189E291E0EDCF67E432
:1016C00071E083E792E00E940C15892B31F481E0F0
:1016D0008093BF0287E191E0DFCF61E571E083E7AE
:1016E00092E00E940C15892B29F41092BF0286E02B
:1016F00091E0D2CF6CE571E083E792E00E940C1597
:10170000892B09F0B5C081E08093B3011092BE022D
:10171000E5EFF1E08491E1EEF1E00491EDECF1E030
:101720001491112309F444C181110E946801E12F31
:10173000F0E0EE0FFF1FEF5AFE4FA591B4918C9190
:10174000082391E080E009F490E0092F182F8091A0
:1017500002018017110651F00E94DB0360938F0194
:101760007093900180939101909392010E94DB030A
:10177000C0908F01D0909001E0909101F090920183
:10178000AB01BC014C195D096E097F09902F917066
:10179000433351056105710508F00DC190930201B5
:1017A0008091B301813009F057C180EA91E00E9435
:1017B0007D0588EE92E00E94600382E08093B30191
:1017C00081E991E00E947D058091B301853009F0A7
:1017D000BEC38090CC019090CB010E94480140EEA6
:1017E000A42E42E0B42E00EC12E0D801D896CD90A1
:1017F000DC90D997F12CE12C98964D905C90712C4F
:10180000612C81100AC0342D252D962D872D26019F
:101810003701C32ED22EE92EF82EF8012081318116
:101820004C145D046E047F040CF038C150E040E0BD
:101830002419350946095709A8EEB3E00E943D1363
:10184000A701960124193509460957090E94C013BA
:10185000293EF3E03F074105510524F028EE33E02F
:1018600040E050E057FF26C120E030E0A90122C14E
:1018700066E671E083E792E00E940C15892B09F07F
:1018800045CF83E041CF48E050E060E771E08EE66D
:1018900092E00E941515892B09F074C069E771E088
:1018A00086E792E00E940C15892B19F40E942A0702
:1018B0002DCF6EE771E086E792E00E940C15892B30
:1018C00051F40E945405882319F084EF90E0BBCEB8
:1018D00080EE90E0E1CE63E871E086E792E00E945E
:1018E0000C15892B09F012CF1A8A198ACE0141965C
:1018F0000E94270589899A8986349C4409F03FC053
:10190000CE0101960E94380582ED90E00E94D40439
:1019100069817A818B819C8144E00E9412068CE26D
:101920000E94EF046D817E818F81988543E00E9443
:1019300012068CE20E94EF0489859A850E940C06AB
:101940008CE20E94EF048B859C850E940C068CE241
:101950000E94EF048D859E850E940C068CE20E94F9
:10196000EF046F8570E090E080E04AE00E948B0514
:101970008CE20E94EF0488890E94CF05C7CE80ECDC
:1019800090E08ACE68E871E08EE692E00E940C1545
:10199000892B09F0BBCE59CEEF3408F0B4CD91E0DD
:1019A0009E0F9093BE02F0E0E259FD4F8083ABCDD5
:1019B00010E000E0CCCE2091000130910101201711
:1019C000310709F4EBCE8091B3011093010100932C
:1019D000000190930201012B09F0E2CE823081F0E8
:1019E00030F48111DDCE81E08093B301D9CE843013
:1019F00049F0853009F0D4CE0E94E80284E0F4CFAB
:101A000083E0F2CF10929F011092A0011092A101E9
:101A10001092A2011092A3011092A4011092A501AC
:101A20001092A6011092A7011092A8011092A9018C
:101A30001092AA011092AB011092AC011092AD016C
:101A40001092AE011092AF011092B0011092B1014C
:101A50001092B20185E0C8CF833009F0B5CE8AE795
:101A600091E00E947D0588EF92E00E946003E8EE1D
:101A7000F2E08191919126853785820F931F96958B
:101A80008795978F868FCB88DC88EC15FD0589F7C5
:101A900084E08093B30180E691E094CEE85BFF4F51
:101AA000808191818217930708F0DECE28EE33E023
:101AB00040E050E0D80151963C932E93509781E03E
:101AC0002139314008F480E0F50181935F010E5F18
:101AD0001F4FF2E0003D1F0709F087CE2091E6027C
:101AE000211102C02091E7029091E002911102C001
:101AF0009091E1028091E302811102C08091E402A1
:101B000010921D03222309F451C0811155C0911177
:101B100053C0CC24C3949C1071C080911D03E7E096
:101B2000F4E0811101C0F0E00F2F10E0085F1F4FBB
:101B3000000F111F00541D4F2F2F30E050E040E0E8
:101B4000A8EEB3E00E943D136D8B7E8B8F8B988F38
:101B5000EE5FEF1BF0E0C12CD12C7601412C512C13
:101B60003201FF5FEF1709F454C0D8018D909D90AA
:101B70008D01B12CA12C2D893E894F89588DC5012D
:101B8000B4010E948E13460E571E681E791EC80CA3
:101B9000D91CEA1CFB1CDA01C90188519C4FAF4FCC
:101BA000BF4F8D8B9E8BAF8BB88FDBCF992309F402
:101BB000B0CF882309F4ADCF0E94DB0300911E0350
:101BC00010911F032091200330912103061717075E
:101BD0002807390708F09DCF81E080931D030E94FC
:101BE000DB0366507F4F8F4F9F4F60931E037093B0
:101BF0001F0380932003909321038BCF32E0D32ED9
:101C00009D1005C080911D03E3E081118CCFE7E0BA
:101C10008ACF96E9C916D104E104F104C0F481E049
:101C200080931C038091180390911903A0911A03CB
:101C3000B0911B0320E030E0A9018C3A9D40A10542
:101C4000B105ACF028E53BE140E050E010C0109257
:101C50001C03C301B201A70196010E949E132093A9
:101C600018033093190340931A0350931B032093D6
:101C7000030130930401409305015093060169016B
:101C80007A01FCEACF1AFDE0DF0AE108F108C09210
:101C90009B01D0929C01E0929D01F0929E014090A8
:101CA000A3015090A4016090A5017090A60100913D
:101CB000C5011091C6012090C9013090CA0131942C
:101CC0002194310880911C03882309F4A5C0B80130
:101CD00014141504160417040CF437C1B101C8011B
:101CE0000E9458020E94DB032091B301223009F4C4
:101CF000A3C108F04BC1222309F466C1213009F4C5
:101D000084C10E94DB032091BF02222309F477C023
:101D100000919701109198012091990130919A01B9
:101D20006B017C01C01AD10AE20AF30A970186010D
:101D3000083211052105310508F461C0609397014F
:101D4000709398018093990190939A011091B30137
:101D500080909B0190909C01A0909D01B0909E016D
:101D600040900301509004016090050170900601BD
:101D70008BE591E00E94D40480ECE82E82E0F82EFE
:101D80008CE20E94EF04D7016D917D917D0190E07E
:101D900080E04AE00E948B05E0EDF2E0EE15FF05E1
:101DA00079F78CE20E94EF04C301B2010E94E205C0
:101DB0008CE20E94EF04C501B4010E94E2058CE2AE
:101DC0000E94EF048091CD019091CE010E940C06FB
:101DD0008CE20E94EF048091CF019091D0010E948B
:101DE0000C068CE20E94EF04612F70E090E080E02E
:101DF0004AE00E948B0581E291E00E94700580E03C
:101E000090E0892B09F47FCB0E945104882309F4C8
:101E10007ACB0E94000077CBC0929F01D092A001A4
:101E2000E092A101F092A201C701B6010E9407123F
:101E30002091BD013091BE014091BF015091C00180
:101E40000E9466124B015C018092A7019092A8014A
:101E5000A092A901B092AA01C701B601641975093F
:101E6000860997090E9407122091C1013091C20191
:101E70004091C3015091C4010E9466129B01AC01C4
:101E80002093AB013093AC014093AD015093AE0170
:101E9000C501B4010E94EE130E94CC144B015C01F9
:101EA0008092AF019092B001A092B101B092B201C4
:101EB000C092A301D092A401E092A501F092A601E4
:101EC000F7FE08C0F094E094D094C094C11CD11CDB
:101ED000E11CF11C26EAC21623E0D206E104F1045B
:101EE000D4F0A7019601255A334041095109D80180
:101EF00017FD1196B595A7950E94DF1327E03AE0EC
:101F000040E050E00E94C013021B130B0C3311057C
:101F100014F40CE310E0C80188199909800E911E91
:101F20002091C7013091C801281739070CF4C90165
:101F3000B401281539050CF4B901621573050CF4C8
:101F4000B101821593050CF0CBCEC101C9CE0E9420
:101F500048018091180390911903A0911A03B09140
:101F60001B038093030190930401A0930501B09398
:101F700006018C5A9D40A109B10980939B01909361
:101F80009C01A0939D01B0939E01ACCE243009F436
:101F900057C0D8F1253009F0B4CE009193011091CB
:101FA000940120919501309196016B017C01C01A3A
:101FB000D10AE20AF30A97018601043611052105C8
:101FC000310508F49ECE16C0009193011091940142
:101FD00020919501309196016B017C01C01AD10AC4
:101FE000E20AF30A97018601043F114021053105F9
:101FF00008F487CE609393017093940180939501C8
:10200000909396010E9414057CCE0091930110914B
:10201000940120919501309196016B017C01C01AC9
:10202000D10AE20AF30A970186010233110521055C
:10203000310508F466CEDECF81E00E941D0561CE39
:1020400028EE33E040E050E00E949E1321E060352E
:1020500071058105910558F0605A7109810991094E
:1020600021E0603571058105910508F020E0822F9F
:10207000E4CF662777270C948F10FC0188279927D7
:10208000E89421912032E9F3293010F02E30C8F382
:102090002B3241F02D3239F4689404C00E9487102D
:1020A000820F911D219120532A30C0F31EF4909588
:1020B00081959F4F089542E253E00E946010089579
:1020C000FA01A191B081009719F41097E1F0CD01C8
:1020D000DC01CD010D90002011F4C00113C0FB0103
:1020E0002191222319F02015D9F7F3CFFB0121917B
:1020F000201519F41E92119606C02223C1F70D90E7
:102100000020A1F7D001FA01A193B08308957AE0ED
:10211000979F902D879F802D910D11240895B0E0F9
:10212000A0E0E5E9F0E10C944E135C017B01611540
:10213000710519F0DB018D939C9385010F5F1F4F93
:10214000F501D0818D2F90E00E94DF116C01892B69
:10215000B9F5DD32B9F50F5F1F4FD5011196DC914E
:10216000C1E05801F1E0AF1AB10843E050E060E788
:1021700070E0C5010E94E811892B69F5680182E0D1
:10218000C80ED11C45E050E06BE670E0C6010E942D
:10219000E811892B21F4680197E0C90ED11CE114E4
:1021A000F10419F0D701CD92DC9260E070E080E894
:1021B0009FEFC111FFC060E070E080E89FE7FAC0C8
:1021C0005801BBCFDB3229F485010E5F1F4FF501AB
:1021D000D181C0E0C6CF43E050E068E670E0C501C1
:1021E0000E94E811892BE9F0F80110E000E020E0FE
:1021F00030E0A9015F01B0ED8B2E8D0E89E08815CE
:10220000C8F19C2E689491F88C2F8870C2FF16C07C
:10221000811102C00F5F1F4F3196D501DC91C92D8E
:10222000E9CFE114F10429F00E5F1F4FF70111838C
:10223000008360E070E080EC9FE7BCC0882311F071
:1022400001501109A5E0B0E00E943D139B01AC01D3
:10225000220F331F441F551F280D311D411D511DD5
:10226000283999E93907490799E15907A8F2C66061
:102270009C2ED2CFAEEF8A1206C0C3FD3CC09C2E6E
:10228000689493F8C9CFDF7DD534A9F580818D326C
:1022900039F4C061DF011296818162E070E006C00E
:1022A000DF018B32C1F3119661E070E080535D0174
:1022B000A61AB70A8A30F8F4E0E8CE16ECE0DE069B
:1022C0005CF4B601660F771F660F771FC60ED71E28
:1022D000CC0CDD1CC80ED11C5D01FFEFAF1ABF0A8C
:1022E0008C9180538A30A8F1C4FF03C0D194C1946B
:1022F000D1080C0D1D1DC1FF09C0E114F10431F01E
:1023000081E0A81AB108D701AD92BC92CA01B90107
:102310000E940512C370C33009F490584B015C0150
:1023200020E030E0A9010E940012882309F440C097
:10233000CFE9D0E017FF05C0119501951109C7E855
:10234000D0E06E01B8E1CB1AD10880E2E82EF12C82
:102350000FC0D501B1CFFE01259135914591549122
:102360000E191F09C501B4010E9466124B015C01E0
:10237000D501C4010E151F0574F72497F594E79451
:10238000CC16DD06A9F78A2F880F8B2F881F8F3F69
:1023900049F020E030E0A901C501B4010E9400121B
:1023A000811106C082E290E090932503809324037C
:1023B000C501B401CDB7DEB7ECE00C946A139111FE
:1023C0000C94D312803219F089508550C8F70895C3
:1023D000FB01DC014150504088F08D9181341CF0AC
:1023E0008B350CF4805E659161341CF06B350CF418
:1023F000605E861B611171F3990B0895881BFCCFF9
:102400000E94421208F481E00895E89409C097FB05
:102410003EF490958095709561957F4F8F4F9F4FBB
:102420009923A9F0F92F96E9BB279395F6958795FF
:1024300077956795B795F111F8CFFAF4BB0F11F4C2
:1024400060FF1BC06F5F7F4F8F4F9F4F16C0882369
:1024500011F096E911C0772321F09EE8872F762F9F
:1024600005C0662371F096E8862F70E060E02AF0E0
:102470009A95660F771F881FDAF7880F96958795CC
:1024800097F90895990F0008550FAA0BE0E8FEEFA1
:1024900016161706E807F907C0F012161306E40728
:1024A000F50798F0621B730B840B950B39F40A2621
:1024B00061F0232B242B252B21F408950A2609F4FF
:1024C000A140A6958FEF811D811D08950E9479126C
:1024D0000C94ED120E94DF1238F00E94E61220F0F8
:1024E000952311F00C94D6120C94DC1211240C9448
:1024F00021130E94FE1270F3959FC1F3950F50E0D7
:10250000551F629FF001729FBB27F00DB11D639FA5
:10251000AA27F00DB11DAA1F649F6627B00DA11D4B
:10252000661F829F2227B00DA11D621F739FB00DF1
:10253000A11D621F839FA00D611D221F749F332761
:10254000A00D611D231F849F600D211D822F762FFA
:102550006A2F11249F5750409AF0F1F088234AF0D7
:10256000EE0FFF1FBB1F661F771F881F9150504043
:10257000A9F79E3F510580F00C94D6120C942113BC
:102580005F3FE4F3983ED4F3869577956795B795CA
:10259000F795E7959F5FC1F7FE2B880F911D9695E4
:1025A000879597F9089599278827089597F99F6740
:1025B00080E870E060E008959FEF80EC08950024CB
:1025C0000A941616170618060906089500240A9498
:1025D00012161306140605060895092E0394000C1E
:1025E00011F4882352F0BB0F40F4BF2B11F460FFAD
:1025F00004C06F5F7F4F8F4F9F4F089557FD9058D6
:10260000440F551F59F05F3F71F04795880F97FBB6
:10261000991F61F09F3F79F0879508951216130670
:102620001406551FF2CF4695F1DF08C0161617069F
:102630001806991FF1CF86957105610508940895D4
:10264000E894BB2766277727CB0197F90895F99976
:10265000FECF92BD81BDF89A992780B50895262FA7
:10266000F999FECF1FBA92BD81BD20BD0FB6F89477
:10267000FA9AF99A0FBE019608950E947F13A59FBA
:10268000900DB49F900DA49F800D911D112408956D
:102690002F923F924F925F926F927F928F929F9272
:1026A000AF92BF92CF92DF92EF92FF920F931F9360
:1026B000CF93DF93CDB7DEB7CA1BDB0B0FB6F89411
:1026C000DEBF0FBECDBF09942A88398848885F8451
:1026D0006E847D848C849B84AA84B984C884DF80C2
:1026E000EE80FD800C811B81AA81B981CE0FD11DA6
:1026F0000FB6F894DEBF0FBECDBFED010895A29FC7
:10270000B001B39FC001A39F700D811D1124911DC5
:10271000B29F700D811D1124911D0895DB018F93CF
:102720009F930E943D13BF91AF91A29F800D911D79
:10273000A39F900DB29F900D11240895A1E21A2E2F
:10274000AA1BBB1BFD010DC0AA1FBB1FEE1FFF1F55
:10275000A217B307E407F50720F0A21BB30BE40BA5
:10276000F50B661F771F881F991F1A9469F76095EC
:102770007095809590959B01AC01BD01CF010895A6
:10278000052E97FB1EF400940E94D71357FD07D027
:102790000E949E1307FC03D04EF40C94D71350955F
:1027A0004095309521953F4F4F4F5F4F089590953D
:1027B0008095709561957F4F8F4F9F4F0895B7FF1C
:1027C0000C943D130E943D13821B930B0895EE0F52
:1027D000FF1F0590F491E02D09945058BB27AA27BC
:1027E0000E9405140C94ED120E94DF1238F00E9432
:1027F000E61220F039F49F3F19F426F40C94DC1211
:102800000EF4E095E7FB0C94D612E92F0E94FE121D
:1028100058F3BA17620773078407950720F079F415
:10282000A6F50C9420130EF4E0950B2EBA2FA02DD4
:102830000B01B90190010C01CA01A0011124FF276D
:10284000591B99F0593F50F4503E68F11A16F04068
:10285000A22F232F342F4427585FF3CF4695379567
:102860002795A795F0405395C9F77EF41F16BA0B2C
:10287000620B730B840BBAF09150A1F0FF0FBB1FDA
:10288000661F771F881FC2F70EC0BA0F621F731F23
:10289000841F48F4879577956795B795F7959E3F80
:1028A00008F0B0CF9395880F08F09927EE0F979511
:1028B000879508950E946E140C94ED120E94E61202
:1028C00058F00E94DF1240F029F45F3F29F00C9489
:1028D000D61251110C9421130C94DC120E94FE129A
:1028E00068F39923B1F3552391F3951B550BBB273F
:1028F000AA2762177307840738F09F5F5F4F220F84
:10290000331F441FAA1FA9F335D00E2E3AF0E0E87A
:1029100032D091505040E695001CCAF72BD0FE2FC4
:1029200029D0660F771F881FBB1F26173707480758
:10293000AB07B0E809F0BB0B802DBF01FF27935810
:102940005F4F3AF09E3F510578F00C94D6120C94EC
:1029500021135F3FE4F3983ED4F38695779567950E
:10296000B795F7959F5FC9F7880F911D9695879545
:1029700097F90895E1E0660F771F881FBB1F621764
:1029800073078407BA0720F0621B730B840BBA0B22
:10299000EE1F88F7E09508950E94D3146894B11152
:1029A0000C94211308950E94061388F09F5798F005
:1029B000B92F9927B751B0F0E1F0660F771F881F44
:1029C000991F1AF0BA95C9F714C0B13091F00E945E
:1029D0002013B1E008950C942013672F782F8827D7
:1029E000B85F39F0B93FCCF3869577956795B39585
:1029F000D9F73EF490958095709561957F4F8F4FF4
:102A00009F4F08950E94421208F48FEF08950E948C
:102A10004212880B990B0895FB01DC018D91019006
:102A200080190110D9F3990B0895FB01DC01415085
:102A3000504030F08D910190801919F40020B9F7C1
:0A2A4000881B990B0895F894FFCF4E
:102A4A00010001AC0D00000E0F1011121314150035
:102A5A000000008704E7031404F404450423043740
:102A6A00040D0A006E616E00696E66006F7666007C
:102A7A00245049442C0024434D442C0053544152C1
:102A8A00540053544F500053545245414D5F4F4EDA
:102A9A000053545245414D5F4F46460043414C5FF7
:102AAA00424C41434B0043414C5F5748495445000F
:102ABA0024454550524F4D2C0053415645004C4F2A
:0E2ACA00414400524541440024474554000059
:00000001FF
