:100000000C941B010C9443010C9443010C94430188
:100010000C9443010C9443010C9443010C94430150
:100020000C9443010C9443010C9443010C94430140
:100030000C9443010C9443010C9443010C94430130
:100040000C9451080C9443010C94C1080C949B0827
:100050000C9443010C9443010C9443010C94430110
:100060000C9443010C9443014E414E494E4954595E
:10007000494E46CDCCCC3D0AD7233C17B7D1387773
:10008000CC2B329595E6241FB14F0A000020410089
:1000900000C84200401C4620BCBE4CCA1B0E5AAED3
:1000A000C59D7424424F4F542C52454144595F31F1
:1000B000365F4348414E4E454C530024454550520F
:1000C0004F4D5F4552522C454D50545900244545E3
:1000D00050524F4D5F444154412C00244552522C04
:1000E0004E4F5F454550524F4D5F444154410024AF
:1000F0004F4B2C454550524F4D5F4C4F414445446A
:1001000000244F4B2C53545245414D5F4D5554459F
:100110004400244F4B2C53545245414D5F414354AE
:1001200049564500244F4B2C53544F5050454400E2
:10013000244F4B2C5354415254454400244F4B2CD4
:100140005049445F5550444154454400000000006C
:100150002300260029002454454C00244F4B2C57E3
:10016000484954455F444F4E455F43414C494252D4
:100170004154454400244C4F472C43414C49425282
:100180004154494E475F574849544500244F4B2C32
:10019000424C41434B5F444F4E4500244C4F472C4B
:1001A00043414C4942524154494E475F424C4143BE
:1001B0004B0000000000240027002A00000000007F
:1001C000250028002B000404040404040404020293
:1001D00002020202030303030303010204081020C6
:1001E00040800102040810200102040810200000D1
:1001F00000080002010000030407000000000000E6
:100200000000244346472C0024454550524F4D5F83
:100210004552522C5645524946595F4641494C4534
:10022000440024454550524F4D5F4F4B2C5341568F
:1002300045442C00F30811241FBECFEFD8E0DEBFE9
:10024000CDBF23E0A6E8B1E001C01D92A637B207FA
:10025000E1F711E0A0E0B1E0ECE8FAE202C00590BD
:100260000D92A638B107D9F711E0CBE1D1E004C077
:100270002197FE010E940814CA31D107C9F70E94D4
:100280003D090C9444150C940000E8EBF2E090E07A
:1002900047E050E065E488B1817E892B88B9DA01B6
:1002A0001197F1F760937C0080917A0080648093CD
:1002B0007A0080917A0086FDFCCF20917800309101
:1002C0007900219331939E5F903229F7089583300E
:1002D00081F028F4813099F08230A9F008958730B8
:1002E000A9F08830C9F08430B1F4809180008F7D0E
:1002F00003C0809180008F7780938000089584B53B
:100300008F7784BD089584B58F7DFBCF8091B00039
:100310008F778093B00008958091B0008F7DF9CFE2
:100320001F93CF93DF93282F30E0F901E251FE4F66
:100330008491F901E652FE4FD491F901EA53FE4F40
:10034000C491CC23A9F0162F81110E946701EC2FD4
:10035000F0E0EE0FFF1FE454FE4FA591B4918FB76C
:10036000F894EC91111108C0D095DE23DC938FBF77
:10037000DF91CF911F910895DE2BF8CFCF93DF93BC
:1003800090E0FC01E652FE4F24918A539E4FFC01FF
:1003900084918823C9F090E0880F991FFC01EE54E6
:1003A000FE4FA591B491FC01E454FE4FC591D49148
:1003B00061110DC09FB7F8948C91209582238C9386
:1003C0008881282328839FBFDF91CF9108956230D1
:1003D00051F49FB7F8943C91822F809583238C939E
:1003E000E8812E2BEFCF8FB7F894EC912E2B2C9326
:1003F0008FBFEACF1F93CF93DF93182FEB0161E0FC
:100400000E94BE01209739F460E0812FDF91CF91E7
:100410001F910C949001CF3FD10511F461E0F5CF0D
:10042000E12FF0E0E251FE4FE491E33031F140F48E
:10043000E130B1F0E230E1F0C038D1057CF7E4CF33
:10044000E73029F1E83059F1E430B1F780918000CC
:10045000806280938000D0938B00C0938A0004C098
:1004600084B5806884BDC7BDDF91CF911F91089589
:1004700084B5806284BDC8BDF7CF8091800080685C
:1004800080938000D0938900C0938800EDCF809145
:10049000B00080688093B000C093B300E5CF809136
:1004A000B00080628093B000C093B400DDCF0F93A2
:1004B0001F93CF93DF9381302FEF92070CF474C01A
:1004C0008C018F3F910519F014F00FEF10E0C1E09F
:1004D000DFEF61308FEF78073CF0EB016F3F710584
:1004E00019F014F0CFEFD0E01093C6010093C501CE
:1004F000D093C801C093C7011016110614F560E02F
:100500008AE00E94900161E089E00E949001B801B8
:100510008BE00E94FA011C161D0674F561E084E070
:100520000E94900160E085E00E949001BE0183E09E
:10053000DF91CF911F910F910C94FA0101E01FEF11
:10054000CCCF0115110569F061E08AE00E949001AD
:1005500060E089E00E94900166277727601B710B9D
:10056000D7CF60E08AE00E94900160E089E00E94BD
:10057000900170E060E0CCCF60E084E0209759F01B
:100580000E94900161E085E00E9490016627772734
:100590006C1B7D0BCCCF0E94900160E085E00E9437
:1005A000900170E060E0C3CF61302FEF720734F646
:1005B00081E09FEF9093C6018093C5019093C8019D
:1005C0008093C701C1E0DFEF01E01FEFBDCF60E026
:1005D0008AE00E94900160E089E00E94900170E052
:1005E00060E08BE00E94FA0160E084E00E949001EC
:1005F00060E085E00E94900170E060E083E00E948E
:10060000FA01E5ECF1E01182108213821282089562
:100610003FB7F8948091B1019091B201A091B301DC
:10062000B091B40126B5A89B05C02F3F19F00196E3
:10063000A11DB11D3FBFBA2FA92F982F8827BC013C
:10064000CD01620F711D811D911D42E0660F771F64
:10065000881F991F4A95D1F708958F929F92AF9264
:10066000BF92CF92DF92EF92FF924B015C010E940A
:1006700008036B017C010E9408036C197D098E0937
:100680009F09683E734081059105A8F321E0821A15
:100690009108A108B10888EEC80E83E0D81EE11CBD
:1006A000F11C81149104A104B10429F7FF90EF908B
:1006B000DF90CF90BF90AF909F908F9008956F92F2
:1006C0007F928F929F92AF92BF92CF92DF92EF92E2
:1006D000FF920F931F93CF93DF93CDB7DEB7C05434
:1006E000D1090FB6F894DEBF0FBECDBF4C01CE01CD
:1006F00001967C0180E4D7011D928A95E9F710E507
:100700005E01B1E4AB0EB11C0E944501670198EB9C
:10071000692E92E0792EF701419151916191719189
:10072000D3012D913D913D01CF010497420F531FFD
:10073000611D711DDC014D935D936D937C93139747
:10074000EA15FB0549F76FE070E080E090E00E9459
:100750002D031150C9F684017401B0E2EB0EF11CB7
:1007600080E5882E912CA12CB12CF601619171911C
:10077000819191916F01A50194010E94BF13D8014D
:100780002D933D938D01AE15BF0579F7C05CDF4F0A
:100790000FB6F894DEBF0FBECDBFDF91CF911F9192
:1007A0000F91FF90EF90DF90CF90BF90AF909F9010
:1007B0008F907F906F9008952FB7F8946091AD015E
:1007C0007091AE018091AF019091B0012FBF08955B
:1007D000AF92BF92CF92DF92EF92FF920F931F934F
:1007E000CF93DF936C017B018B01040F151FEB018D
:1007F0005E01AE18BF08C017D10759F06991D60144
:10080000ED91FC910190F081E02DC6010995892BB5
:1008100079F7C501DF91CF911F910F91FF90EF9074
:10082000DF90CF90BF90AF900895FC01538D448D21
:10083000252F30E0842F90E0821B930B541710F08B
:10084000CF96089501970895FC01918D828D981798
:1008500061F0A28DAE0FBF2FB11D5D968C91928D70
:100860009F5F9F73928F90E008958FEF9FEF0895A1
:10087000FC01918D828D981731F0828DE80FF11D6A
:10088000858D90E008958FEF9FEF0895FC01918D85
:10089000228D892F90E0805C9F4F821B91098F737E
:1008A0009927089589EC91E00E94460421E0892B64
:1008B00009F420E0822F089580E090E0892B29F050
:1008C0000E94520481110C9400000895FC01A48D33
:1008D000A80FB92FB11DA35ABF4F2C91848D90E062
:1008E00001968F739927848FA689B7892C93A08945
:1008F000B1898C91837080648C93938D848D9813CF
:1009000006C00288F389E02D80818F7D8083089561
:10091000EF92FF920F931F93CF93DF93EC0181E04F
:10092000888F9B8D8C8D98131AC0E889F9898081F6
:1009300085FF15C09FB7F894EE89FF896083E88929
:10094000F98980818370806480839FBF81E090E01B
:10095000DF91CF911F910F91FF90EF900895F62EA8
:100960000B8D10E00F5F1F4F0F731127E02E8C8D42
:100970008E110CC00FB607FCFACFE889F989808187
:1009800085FFF5CFCE010E946604F1CFEB8DEC0F11
:10099000FD2FF11DE35AFF4FF0829FB7F8940B8FA4
:1009A000EA89FB8980818062CFCF0F931F93CF9319
:1009B000DF938C01D0E0C0E0F801EC0FFD1F6491E3
:1009C000662341F089EC91E00E948804892B11F0A4
:1009D0002196F2CFCE01DF91CF911F910F91089513
:1009E000682F89EC91E00C948804CF93DF93EC019D
:1009F000888D8823B9F0AA89BB89E889F9898C9107
:100A000085FD03C0808186FD0DC00FB607FCF7CFC2
:100A10008C9185FFF2CF808185FFEDCFCE010E94C2
:100A20006604E9CFDF91CF9108956091860181E05E
:100A30006827609386018DE00C949001CF93C82FB6
:100A4000682F8DE00E949001C0938601CF91089598
:100A5000CF93DF93EC0190E080E00E9448138883FD
:100A600081E090E00E9448138983CE01DF91CF910D
:100A70000895EF92FF920F931F93CF93DF937C0122
:100A80008C01C2E0D0E0CE010E944813F8018193AE
:100A90008F012196C231D105B1F7C701DF91CF9106
:100AA0001F910F91FF90EF900895CF93DF9300D0A7
:100AB000CDB7DEB71A821982CE0101960E942805B1
:100AC00089819A8186349C4451F485EB91E00E949F
:100AD000390581E00F900F90DF91CF91089580E06C
:100AE000F9CFFC0101900020E9F73197AF01481BD5
:100AF000590BBC0189EC91E00C94E803CF93DF9390
:100B00000E94D504EC0189E191E00E9471058C0FEF
:100B10009D1FDF91CF9108958F929F92AF92BF92C8
:100B20000F931F93CF93DF93CDB7DEB7A1970FB687
:100B3000F894DEBF0FBECDBF19A2423008F44AE0E0
:100B40008E010F5D1F4F842E912CB12CA12CA5017D
:100B500094010E94BF13E62FB901CA01EA30F4F4F0
:100B6000E05DD801EE938D01232B242B252B79F703
:100B700090E080E0109719F0CD010E947105A196D8
:100B80000FB6F894DEBF0FBECDBFDF91CF911F919E
:100B90000F91BF90AF909F908F900895E95CE1CF47
:100BA000CF93DF93682F70E090E080E04AE00E94EE
:100BB0008C05EC0189E191E00E9471058C0F9D1F6D
:100BC000DF91CF910895CF92DF92EF92FF92CF9372
:100BD000DF9397FF19C06B017C018DE20E94F00446
:100BE000EC0166277727CB016C197D098E099F09D7
:100BF0004AE00E948C058C0F9D1FDF91CF91FF90E2
:100C0000EF90DF90CF9008954AE0DF91CF91FF9071
:100C1000EF90DF90CF900C948C05BC01990F880B5E
:100C2000990B0C94E3054F925F926F927F928F9293
:100C30009F92AF92BF92CF92DF92EF92FF920F936B
:100C40001F93CF936B017C01742EAC019B010E941A
:100C50002815882399F08CE191E0CF911F910F9195
:100C6000FF90EF90DF90CF90BF90AF909F908F90CC
:100C70007F906F905F904F900C94710546015701E3
:100C8000E894B7F82FEF3FEF4FE75FE7C501B401F6
:100C90000E94281581110DC02FEF3FEF4FE75FE74E
:100CA000C501B4010E94211218161CF480E291E0E3
:100CB000D4CF2FEF3FEF4FE75FE4C701B6010E94AB
:100CC000231518161CF484E291E0C7CF2FEF3FEFF5
:100CD0004FE75FECC701B6010E94211287FDF3CFF9
:100CE00020E030E0A901C701B6010E94211210E006
:100CF00000E087FF08C08DE20E94F0048C01F7FA43
:100D0000F094F7F8F094C0E060E070E080E09FE3DA
:100D10007C1641F020E030E040E251E40E947B1478
:100D2000CF5FF6CFA70196010E940F142B013C0163
:100D30000E94F4144B015C014AE00E948C057C0186
:100D4000E00EF11ECC23B1F1C501B4010E942612C0
:100D50009B01AC01C301B2010E940E144B015C0166
:100D60008EE20E94F004E80EF91EC15018F120E056
:100D700030E040E251E4C501B4010E9487122B012A
:100D80003C010E94F4144B01B12CA12C4AE0C50196
:100D9000B4010E948C05E80EF91EC501B4010E9441
:100DA00026129B01AC01C301B2010E940E144B013B
:100DB0005C01DBCFC701CF911F910F91FF90EF90A6
:100DC000DF90CF90BF90AF909F908F907F906F906B
:100DD0005F904F900895CF93DF9382E092E00E945E
:100DE000D504C5EBD1E0688179818A819B8144E09B
:100DF0000E9413068CE20E94F0046C817D818E813A
:100E00009F8143E00E9413068CE20E94F0048885D3
:100E100099850E940D068CE20E94F0048A859B85CC
:100E20000E940D068CE20E94F0048C859D850E9434
:100E30000D068CE20E94F0046E8570E090E080E088
:100E40004AE00E948C058CE20E94F0048F85DF91BD
:100E5000CF910C94D005CF92DF92EF92FF920F9337
:100E60001F93CF93DF93CDB7DEB762970FB6F89499
:100E7000DEBF0FBECDBF90E080E00E9448138634F5
:100E800029F066E490E080E00E94501381E090E059
:100E90000E9448138C3429F06CE481E090E00E94B9
:100EA000501385EBE82E81E0F82E02E010E0F70108
:100EB000D1907F01C8010E944813D81621F06D2DF2
:100EC000C8010E9450130F5F1F4F0231110579F7BF
:100ED0001A8A198ACE0141960E942805CE010196F0
:100EE0000E94390589899A8986349C4409F0C5C0D5
:100EF0002091B5013091B6014091B7015091B801F0
:100F000069817A818B819C810E940E146B017C0126
:100F100020E030E0A9010E942315181624F0F7FA0A
:100F2000F094F7F8F09427E137EB41ED58E3C7016F
:100F3000B6010E94211287FFA0C02091B901309113
:100F4000BA014091BB015091BC016D817E818F81BE
:100F500098850E940E146B017C0120E030E0A9010D
:100F60000E942315181624F0F7FAF094F7F8F0947D
:100F70002FE632E143E85AE3C701B6010E9421128D
:100F800087FF7BC029853A858091BD019091BE0184
:100F90002817390709F071C02B853C858091BF0166
:100FA0009091C0012817390709F067C02D853E854B
:100FB0008091C1019091C2012817390709F05DC0E5
:100FC0009F858091C301981358C098898091C4016E
:100FD000981353C082E292E00E94D50469817A811D
:100FE0008B819C8144E00E9413068CE20E94F004F5
:100FF0006D817E818F81988543E00E9413068CE28B
:101000000E94F00489859A850E940D068CE20E9458
:10101000F0048B859C850E940D068CE20E94F004F2
:101020008D859E850E940D068CE20E94F0046F85DE
:1010300070E090E080E04AE00E948C058CE20E9423
:10104000F00488890E94D00513E061E08DE00E94E1
:10105000900168E270E080E090E00E942D0360E083
:101060008DE00E94900168E270E080E090E00E94D4
:101070002D03115051F781E005C088E092E00E94F5
:101080007E0580E062960FB6F894DEBF0FBECDBF3E
:10109000DF91CF911F910F91FF90EF90DF90CF9054
:1010A00008951F920F920FB60F9211242F933F9322
:1010B0008F939F93AF93BF938091AD019091AE01B9
:1010C000A091AF01B091B0013091AC0123E0230FAA
:1010D0002D3758F50196A11DB11D2093AC018093C9
:1010E000AD019093AE01A093AF01B093B001809198
:1010F000B1019091B201A091B301B091B4010196F8
:10110000A11DB11D8093B1019093B201A093B301D1
:10111000B093B401BF91AF919F918F913F912F9167
:101120000F900FBE0F901F90189526E8230F029680
:10113000A11DB11DD2CF1F920F920FB60F92112495
:101140002F933F934F935F936F937F938F939F93CF
:10115000AF93BF93EF93FF9389EC91E00E946604F5
:10116000FF91EF91BF91AF919F918F917F916F917F
:101170005F914F913F912F910F900FBE0F901F9055
:1011800018951F920F920FB60F9211242F938F93E1
:101190009F93EF93FF93E091D901F091DA01808161
:1011A000E091DF01F091E00182FD1BC09081809110
:1011B000E2018F5F8F732091E301821741F0E0918C
:1011C000E201F0E0E753FE4F958F8093E201FF913B
:1011D000EF919F918F912F910F900FBE0F901F90C5
:1011E00018958081F4CFE9ECF1E01382128288EE49
:1011F00093E0A0E0B0E084839583A683B7838BE07F
:1012000091E09183808385EC90E09587848784ECDE
:1012100090E09787868780EC90E0918B808B81ECC3
:1012200090E0938B828B82EC90E0958B848B86ECA4
:1012300090E0978B868B118E128E138E148E8CE419
:101240009DE1A0E0B0E08093680390936903A093D0
:101250006A03B0936B0310926C0310926D031092AB
:101260006E0310926F03109270031092710310922C
:10127000B60281E08093B7020895CF93DF93CDB794
:10128000DEB768970FB6F894DEBF0FBECDBF789477
:1012900084B5826084BD84B5816084BD85B582607B
:1012A00085BD85B5816085BD80916E00816080932C
:1012B0006E00109281008091810082608093810095
:1012C00080918100816080938100809180008160A5
:1012D000809380008091B10084608093B100809100
:1012E000B00081608093B00080917A008460809328
:1012F0007A0080917A00826080937A0080917A00EF
:10130000816080937A0080917A00806880937A006F
:101310001092C10062E082E00E94BE0161E08DE0B7
:101320000E94BE0181E00E941E05E091D901F0916A
:10133000DA0182E08083E091D501F091D60110823C
:10134000E091D701F091D80180E180831092E10112
:10135000E091DD01F091DE0186E08083E091DB0128
:10136000F091DC01808180618083E091DB01F0916C
:10137000DC01808188608083E091DB01F091DC01F9
:10138000808180688083E091DB01F091DC018081C5
:101390008F7D808381E08093B70261E08EE00E94C0
:1013A000BE0161E08EE00E94900161E08FE00E944A
:1013B000BE0161E080E10E94BE0161E081E10E9426
:1013C000BE0161E082E10E94BE0160E083E10E9413
:1013D000BE0180917A00887F846080937A0088E2E1
:1013E00093E028E033E03C8B2B8B62E573E046E929
:1013F00050E024EF31E0AB89BC896D937D93BC8BC9
:10140000AB8B5F965C934E935E97DF963C932E93E7
:10141000DE978A179B0779F761E088E00E94BE019A
:1014200061E088E00E94900161E08BE00E94BE01D3
:1014300061E08AE00E94BE0161E089E00E94BE0195
:1014400061E083E00E94BE0161E084E00E94BE0191
:1014500061E085E00E94BE010E94E7028091B10038
:10146000887F81608093B10010929701109298015B
:101470001092990110929A0110929B0110929C0176
:1014800010929D0110929E0110929F011092A00156
:101490001092A1011092A2011092A3011092A40136
:1014A0001092A5011092A6011092A7011092A80116
:1014B0001092A9011092AA010E945505811130C015
:1014C0008FE892ECA5E7BEE38093B5019093B60157
:1014D000A093B701B093B80186E696E6A6E8B0E41B
:1014E0008093B9019093BA01A093BB01B093BC0162
:1014F00084EB90E09093BE018093BD018FEF90E06C
:101500009093C0018093BF0182E890E09093C20164
:101510008093C1011092C3011092C4010E942B0755
:1015200083EA90E00E947E050E94EB0680E00E9424
:101530001E0589EC91E00E944604892B09F4FEC047
:1015400089EC91E00E942404E091B6028A3019F0FF
:101550008D3009F03BC2EE2361F3F0E0EA59FD4F14
:10156000108245E050E068E271E086E692E00E9479
:101570003615892B09F08EC06CE271E08BE692E0A3
:101580000E947C100E945A102B013C016CE271E019
:1015900090E080E00E947C10009709F46FC00E94E8
:1015A0005A104B015C016CE271E090E080E00E9417
:1015B0007C10C090BD01D090BE01009719F00E9430
:1015C0005E106C016CE271E090E080E00E947C10A3
:1015D000E090BF01F090C001009719F00E945E10EA
:1015E0007C016CE271E090E080E00E947C10009150
:1015F000C1011091C201009719F00E945E108C0188
:101600006CE271E090E080E00E947C103090C301B9
:10161000009719F00E945E10382E6CE271E090E0A5
:1016200080E00E947C10009791F10E945E10409231
:10163000B5015092B6016092B7017092B8018092E4
:10164000B9019092BA01A092BB01B092BC01D092B4
:10165000BE01C092BD01F092C001E092BF011093A3
:10166000C2010093C1013092C3018093C4018CE395
:1016700091E00E947E050E94EB065EC08090B90159
:101680009090BA01A090BB01B090BC018CCF80912A
:10169000C401CDCF45E050E06EE271E086E692E015
:1016A0000E943615892B09F008C164E371E08BE6CE
:1016B00092E00E942D15892B41F485E08093AB01C7
:1016C00080E391E00E947E0537C06AE371E08BE61B
:1016D00092E00E942D15892B41F40E94E70284E0DC
:1016E0008093AB0184E291E0EDCF6FE371E08BE694
:1016F00092E00E942D15892B31F481E08093B7028E
:1017000082E191E0DFCF69E471E08BE692E00E9434
:101710002D15892B29F41092B70281E091E0D2CFE8
:1017200064E571E08BE692E00E942D15892B09F0AB
:10173000B9C081E08093AB011092B602E0EFF1E016
:101740008491ECEDF1E00491E8ECF1E014911123C7
:1017500009F448C181110E946701E12FF0E0EE0F0A
:10176000FF1FE45BFE4FA591B4918C91082391E09B
:1017700080E009F490E0092F182F80910201801772
:10178000110651F00E94DC03609387017093880179
:101790008093890190938A010E94DC03C0908701A5
:1017A000D0908801E0908901F0908A01AB01BC01E2
:1017B0004C195D096E097F09902F917043335105D3
:1017C0006105710508F011C1909302018091AB0190
:1017D000813009F05BC18BE991E00E947E0588E0D1
:1017E00093E00E945F0382E08093AB018CE891E07C
:1017F0000E947E058091AB01853009F0C9C320901D
:10180000C4013090C3010E94450138EF832E32E0BD
:10181000932E48E0A42E43E0B42E08EB12E0F5012D
:10182000C0A0D1A0F12CE12C4080518022E0A20E7A
:10183000B11C712C612C21100AC0342D252D962D40
:10184000872D26013701C32ED22EE92EF82E4C14F7
:101850005D046E047F040CF03BC1D8012D913C91D6
:1018600050E040E02419350946095709A8EEB3E0D5
:101870000E945E13A70196012419350946095709EC
:101880000E94E113293EB3E03B074105510524F0D6
:1018900028EE33E040E050E057FF29C120E030E07F
:1018A000A90125C16EE571E08BE692E00E942D153D
:1018B000892B09F041CF83E03DCF48E050E068E656
:1018C00071E086E692E00E943615892B09F074C01B
:1018D00061E771E08EE692E00E942D15892B19F4E4
:1018E0000E942B0729CF66E771E08EE692E00E9406
:1018F0002D15892B51F40E945505882319F08FEE80
:1019000090E0B7CE8BED90E0DDCE6BE771E08EE638
:1019100092E00E942D15892B09F00ECF1A8A198AA0
:10192000CE0141960E94280589899A8986349C4473
:1019300009F03FC0CE0101960E9439058DEC90E080
:101940000E94D50469817A818B819C8144E00E9448
:1019500013068CE20E94F0046D817E818F81988550
:1019600043E00E9413068CE20E94F00489859A8568
:101970000E940D068CE20E94F0048B859C850E94DB
:101980000D068CE20E94F0048D859E850E940D0656
:101990008CE20E94F0046F8570E090E080E04AE005
:1019A0000E948C058CE20E94F00488890E94D00578
:1019B000C3CE8BEB90E086CE60E871E086E692E0E5
:1019C0000E942D15892B09F0B7CE55CEEF3408F0C3
:1019D000B0CD91E09E0F9093B602F0E0EA59FD4F32
:1019E0008083A7CD10E000E0C8CE209100013091A7
:1019F00001012017310709F4E7CE8091AB01109364
:101A000001010093000190930201012B09F0DECE49
:101A1000823081F030F48111D9CE81E08093AB0126
:101A2000D5CE843049F0853009F0D0CE0E94E7024F
:101A300084E0F4CF83E0F2CF1092970110929801E6
:101A40001092990110929A0110929B0110929C01A0
:101A500010929D0110929E0110929F011092A00180
:101A60001092A1011092A2011092A3011092A40160
:101A70001092A5011092A6011092A7011092A80140
:101A80001092A9011092AA0185E0C8CF833009F015
:101A9000B1CE85E791E00E947E0588E293E00E9446
:101AA0005F03E8E0F3E081919191268D378D820FFD
:101AB000931F9695879597AF86AFCB88DC88EC15FA
:101AC000FD0589F784E08093AB018BE591E090CE32
:101AD000F80120813181D501DE968D919C9182178C
:101AE000930708F0DBCE28EE33E040E050E0F80149
:101AF00031A320A381E02139314008F480E0D401F2
:101B00008D934D010E5F1F4FB2E0083D1B0709F09A
:101B100086CE20910603211102C0209107039091E7
:101B2000F802911102C09091F9028091FE02811198
:101B30000AC08091FF02811106C0809100038111CB
:101B400002C08091010310926D03222309F450C05A
:101B5000811154C0911152C0E1E03E1271C08091D8
:101B60006D03EFE0F8E0811101C0F0E00F2F10E00D
:101B7000005F1F4F000F111F08541D4F2F2F30E023
:101B800050E040E0A8EEB3E00E945E136D8B7E8BC8
:101B90008F8B988FEE5FEF1BF0E0C12CD12C76017C
:101BA000412C512C3201FF5FEF1709F453C0D801CB
:101BB0008D909D908D01B12CA12C2D893E894F894E
:101BC000588DC501B4010E94AF13460E571E681E02
:101BD000791EC80CD91CEA1CFB1CDA01C90188510A
:101BE0009C4FAF4FBF4F8D8B9E8BAF8BB88FDBCF92
:101BF000992309F4B1CF882309F4AECF0E94DC0306
:101C000000916E0310916F03209170033091710366
:101C1000061717072807390708F09ECF81E0809341
:101C20006D030E94DC0366507F4F8F4F9F4F609380
:101C30006E0370936F0380937003909371038CCF46
:101C4000F2E03F1205C080916D03E7E081118DCF76
:101C5000EFE08BCF9AEFC916D104E104F104C0F490
:101C600081E080936C038091680390916903A09157
:101C70006A03B0916B0320E030E0A9018C349D41F0
:101C8000A105B105ACF028E93AE340E050E010C00E
:101C900010926C03C301B201A70196010E94BF1309
:101CA000209368033093690340936A0350936B0356
:101CB00020930301309304014093050150930601E2
:101CC00069017A01FCE4CF1AFDE1DF0AE108F108BD
:101CD000C0929301D0929401E0929501F092960106
:101CE00040909B0150909C0160909D0170909E01DE
:101CF0000091BD011091BE012090C1013090C20140
:101D000031942194310880916C03882309F4A5C093
:101D1000B80114141504160417040CF437C1B101EA
:101D2000C8010E9457020E94DC032091AB012230BF
:101D300009F4A3C108F04BC1222309F466C1213084
:101D400009F484C10E94DC032091B702222309F424
:101D500077C000918F0110919001209191013091F5
:101D600092016B017C01C01AD10AE20AF30A9701C1
:101D70008601083211052105310508F461C0609320
:101D80008F01709390018093910190939201109133
:101D9000AB018090930190909401A0909501B09038
:101DA00096014090030150900401609005017090ED
:101DB000060186E591E00E94D50488EBE82E82E0DA
:101DC000F82E8CE20E94F004D7016D917D917D0187
:101DD00090E080E04AE00E948C05E8EDF2E0EE152C
:101DE000FF0579F78CE20E94F004C301B2010E9462
:101DF000E3058CE20E94F004C501B4010E94E305F2
:101E00008CE20E94F0048091C5019091C6010E946D
:101E10000D068CE20E94F0048091C7019091C801E8
:101E20000E940D068CE20E94F004612F70E090E0A9
:101E300080E04AE00E948C0589E191E00E947105F2
:101E400080E090E0892B09F474CB0E94520488232F
:101E500009F46FCB0E9400006CCBC0929701D09226
:101E60009801E0929901F0929A01C701B6010E948F
:101E700028122091B5013091B6014091B7015091DF
:101E8000B8010E9487124B015C0180929F019092E1
:101E9000A001A092A101B092A201C701B6016419EC
:101EA0007509860997090E9428122091B90130917D
:101EB000BA014091BB015091BC010E9487129B0165
:101EC000AC012093A3013093A4014093A50150934A
:101ED000A601C501B4010E940F140E94ED144B012C
:101EE0005C018092A7019092A801A092A901B092F2
:101EF000AA01C0929B01D0929C01E0929D01F092B8
:101F00009E01F7FE08C0F094E094D094C094C11CE8
:101F1000D11CE11CF11C21EDC21627E0D206E10420
:101F2000F104D4F0A7019601205D37404109510921
:101F3000D80117FD1196B595A7950E9400142CE7BE
:101F400035E140E050E00E94E113021B130B0C331B
:101F5000110514F40CE310E0C80188199909800EEA
:101F6000911E2091BF013091C001281739070CF450
:101F7000C901B401281539050CF4B90162157305BE
:101F80000CF4B101821593050CF0CBCEC101C9CE82
:101F90000E9445018091680390916903A0916A03B2
:101FA000B0916B038093030190930401A09305010A
:101FB000B09306018C549D41A109B109809393010E
:101FC00090939401A0939501B0939601ACCE2430E8
:101FD00009F457C0D8F1253009F0B4CE00918B0137
:101FE00010918C0120918D0130918E016B017C014B
:101FF000C01AD10AE20AF30A9701860104361105D4
:102000002105310508F49ECE16C000918B01109178
:102010008C0120918D0130918E016B017C01C01AE1
:10202000D10AE20AF30A97018601043F1140210513
:10203000310508F487CE60938B0170938C018093F7
:102040008D0190938E010E9415057CCE00918B012D
:1020500010918C0120918D0130918E016B017C01DA
:10206000C01AD10AE20AF30A970186010233110568
:102070002105310508F466CEDECF81E00E941E0501
:1020800061CE28EE33E040E050E00E94BF1321E033
:10209000603571058105910558F0605A7109810913
:1020A000910921E0603571058105910508F020E076
:1020B000822FE4CF662777270C94B010FC01882785
:1020C0009927E89421912032E9F3293010F02E303D
:1020D000C8F32B3241F02D3239F4689404C00E94C9
:1020E000A810820F911D219120532A30C0F31EF4B5
:1020F000909581959F4F089542E753E00E9481108B
:102100000895FA01A191B081009719F41097E1F0B8
:10211000CD01DC01CD010D90002011F4C00113C0F0
:10212000FB012191222319F02015D9F7F3CFFB01F0
:102130002191201519F41E92119606C02223C1F791
:102140000D900020A1F7D001FA01A193B08308956A
:102150007AE0979F902D879F802D910D11240895EF
:10216000B0E0A0E0E6EBF0E10C946F135C017B01C2
:102170006115710519F0DB018D939C9385010F5F4B
:102180001F4FF501D0818D2F90E00E9400126C014D
:10219000892BB9F5DD32B9F50F5F1F4FD5011196C7
:1021A000DC91C1E05801F1E0AF1AB10843E050E022
:1021B00060E770E0C5010E940912892B69F568018A
:1021C00082E0C80ED11C45E050E06BE670E0C6012D
:1021D0000E940912892B21F4680197E0C90ED11CD5
:1021E000E114F10419F0D701CD92DC9260E070E0C7
:1021F00080E89FEFC111FFC060E070E080E89FE7DA
:10220000FAC05801BBCFDB3229F485010E5F1F4FA6
:10221000F501D181C0E0C6CF43E050E068E670E050
:10222000C5010E940912892BE9F0F80110E000E0D5
:1022300020E030E0A9015F01B0ED8B2E8D0E89E02A
:102240008815C8F19C2E689491F88C2F8870C2FF75
:1022500016C0811102C00F5F1F4F3196D501DC916E
:10226000C92DE9CFE114F10429F00E5F1F4FF701EA
:102270001183008360E070E080EC9FE7BCC088239E
:1022800011F001501109A5E0B0E00E945E139B011E
:10229000AC01220F331F441F551F280D311D411D56
:1022A000511D283999E93907490799E15907A8F2D9
:1022B000C6609C2ED2CFAEEF8A1206C0C3FD3CC0D2
:1022C0009C2E689493F8C9CFDF7DD534A9F5808121
:1022D0008D3239F4C061DF011296818162E070E0D5
:1022E00006C0DF018B32C1F3119661E070E08053CC
:1022F0005D01A61AB70A8A30F8F4E0E8CE16ECE0E1
:10230000DE065CF4B601660F771F660F771FC60EF8
:10231000D71ECC0CDD1CC80ED11C5D01FFEFAF1A1F
:10232000BF0A8C9180538A30A8F1C4FF03C0D194B6
:10233000C194D1080C0D1D1DC1FF09C0E114F104A9
:1023400031F081E0A81AB108D701AD92BC92CA0160
:10235000B9010E942612C370C33009F490584B0192
:102360005C0120E030E0A9010E942112882309F4D9
:1023700040C0CFE9D0E017FF05C0119501951109C4
:10238000C7E8D0E06E01B8E1CB1AD10880E2E82EB0
:10239000F12C0FC0D501B1CFFE01259135914591AA
:1023A00054910E191F09C501B4010E9487124B01F7
:1023B0005C01D501C4010E151F0574F72497F5942F
:1023C000E794CC16DD06A9F78A2F880F8B2F881F7C
:1023D0008F3F49F020E030E0A901C501B4010E941F
:1023E0002112811106C082E290E0909375038093E0
:1023F0007403C501B401CDB7DEB7ECE00C948B13C8
:1024000091110C94F412803219F089508550C8F75C
:102410000895FB01DC014150504088F08D918134DA
:102420001CF08B350CF4805E659161341CF06B35CB
:102430000CF4605E861B611171F3990B0895881B83
:10244000FCCF0E94631208F481E00895E89409C06B
:1024500097FB3EF490958095709561957F4F8F4FD7
:102460009F4F9923A9F0F92F96E9BB279395F695ED
:10247000879577956795B795F111F8CFFAF4BB0F6B
:1024800011F460FF1BC06F5F7F4F8F4F9F4F16C0CF
:10249000882311F096E911C0772321F09EE8872F59
:1024A000762F05C0662371F096E8862F70E060E015
:1024B0002AF09A95660F771F881FDAF7880F96958E
:1024C000879597F90895990F0008550FAA0BE0E832
:1024D000FEEF16161706E807F907C0F012161306E6
:1024E000E407F50798F0621B730B840B950B39F426
:1024F0000A2661F0232B242B252B21F408950A268C
:1025000009F4A140A6958FEF811D811D08950E94B9
:102510009A120C940E130E94001338F00E940713B5
:1025200020F0952311F00C94F7120C94FD12112455
:102530000C9442130E941F1370F3959FC1F3950FE3
:1025400050E0551F629FF001729FBB27F00DB11D37
:10255000639FAA27F00DB11DAA1F649F6627B00DC7
:10256000A11D661F829F2227B00DA11D621F739FB0
:10257000B00DA11D621F839FA00D611D221F749FBE
:102580003327A00D611D231F849F600D211D822F05
:10259000762F6A2F11249F5750409AF0F1F088232C
:1025A0004AF0EE0FFF1FBB1F661F771F881F915059
:1025B0005040A9F79E3F510580F00C94F7120C94FF
:1025C00042135F3FE4F3983ED4F386957795679581
:1025D000B795F795E7959F5FC1F7FE2B880F911D83
:1025E0009695879597F9089599278827089597F9DB
:1025F0009F6780E870E060E008959FEF80EC0895A9
:1026000000240A94161617061806090608950024D1
:102610000A9412161306140605060895092E03944B
:10262000000C11F4882352F0BB0F40F4BF2B11F4BF
:1026300060FF04C06F5F7F4F8F4F9F4F089557FD1E
:102640009058440F551F59F05F3F71F04795880F20
:1026500097FB991F61F09F3F79F0879508951216B7
:1026600013061406551FF2CF4695F1DF08C0161663
:1026700017061806991FF1CF869571056105089414
:102680000895E894BB2766277727CB0197F908952B
:10269000F999FECF92BD81BDF89A992780B508952A
:1026A000262FF999FECF1FBA92BD81BD20BD0FB66E
:1026B000F894FA9AF99A0FBE019608950E94A01311
:1026C000A59F900DB49F900DA49F800D911D112486
:1026D00008952F923F924F925F926F927F928F92C6
:1026E0009F92AF92BF92CF92DF92EF92FF920F93A1
:1026F0001F93CF93DF93CDB7DEB7CA1BDB0B0FB6AB
:10270000F894DEBF0FBECDBF09942A883988488867
:102710005F846E847D848C849B84AA84B984C884FD
:10272000DF80EE80FD800C811B81AA81B981CE0FF4
:10273000D11D0FB6F894DEBF0FBECDBFED010895D9
:10274000A29FB001B39FC001A39F700D811D1124F2
:10275000911DB29F700D811D1124911D0895DB0103
:102760008F939F930E945E13BF91AF91A29F800DA4
:10277000911DA39F900DB29F900D11240895A1E289
:102780001A2EAA1BBB1BFD010DC0AA1FBB1FEE1FEB
:10279000FF1FA217B307E407F50720F0A21BB30B36
:1027A000E40BF50B661F771F881F991F1A9469F7B2
:1027B00060957095809590959B01AC01BD01CF010E
:1027C0000895052E97FB1EF400940E94F81357FD00
:1027D00007D00E94BF1307FC03D04EF40C94F813EB
:1027E00050954095309521953F4F4F4F5F4F08953D
:1027F00090958095709561957F4F8F4F9F4F08956D
:10280000B7FF0C945E130E945E13821B930B089516
:10281000EE0FFF1F0590F491E02D09945058BB274F
:10282000AA270E9426140C940E130E94001338F05D
:102830000E94071320F039F49F3F19F426F40C94FA
:10284000FD120EF4E095E7FB0C94F712E92F0E94BD
:102850001F1358F3BA17620773078407950720F010
:1028600079F4A6F50C9441130EF4E0950B2EBA2FD3
:10287000A02D0B01B90190010C01CA01A001112486
:10288000FF27591B99F0593F50F4503E68F11A1632
:10289000F040A22F232F342F4427585FF3CF4695C3
:1028A00037952795A795F0405395C9F77EF41F16E5
:1028B000BA0B620B730B840BBAF09150A1F0FF0FAF
:1028C000BB1F661F771F881FC2F70EC0BA0F621F9B
:1028D000731F841F48F4879577956795B795F7958B
:1028E0009E3F08F0B0CF9395880F08F09927EE0F20
:1028F0009795879508950E948F140C940E130E944B
:10290000071358F00E94001340F029F45F3F29F0AC
:102910000C94F71251110C9442130C94FD120E9466
:102920001F1368F39923B1F3552391F3951B550BAE
:10293000BB27AA2762177307840738F09F5F5F4F92
:10294000220F331F441FAA1FA9F335D00E2E3AF0D1
:10295000E0E832D091505040E695001CCAF72BD0E9
:10296000FE2F29D0660F771F881FBB1F261737073A
:102970004807AB07B0E809F0BB0B802DBF01FF276C
:1029800093585F4F3AF09E3F510578F00C94F71240
:102990000C9442135F3FE4F3983ED4F38695779509
:1029A0006795B795F7959F5FC9F7880F911D969525
:1029B000879597F90895E1E0660F771F881FBB1F81
:1029C000621773078407BA0720F0621B730B840B2E
:1029D000BA0BEE1F88F7E09508950E94F4146894EE
:1029E000B1110C94421308950E94271388F09F5749
:1029F00098F0B92F9927B751B0F0E1F0660F771F23
:102A0000881F991F1AF0BA95C9F714C0B13091F018
:102A10000E944113B1E008950C944113672F782F61
:102A20008827B85F39F0B93FCCF3869577956795DD
:102A3000B395D9F73EF490958095709561957F4F49
:102A40008F4F9F4F08950E94631208F48FEF0895EF
:102A50000E946312880B990B0895FB01DC018D9194
:102A6000019080190110D9F3990B0895FB01DC0145
:102A70004150504030F08D910190801919F40020A0
:0C2A8000B9F7881B990B0895F894FFCF5C
:102A8C000100014C1D0000000000008804E8031543
:102A9C0004F5044604240438040D0A006E616E002B
:102AAC00696E66006F766600245049442C002443FE
:102ABC004D442C0053544152540053544F50005326
:102ACC00545245414D5F4F4E0053545245414D5F5A
:102ADC004F46460043414C5F424C41434B004341FF
:102AEC004C5F57484954450024454550524F4D2C96
:102AFC000053415645004C4F41440052454144005F
:062B0C00244745540000BF
:00000001FF
